:0200000480007A
:100000006F00000B1300000013000000130000003D
:100010001300000013000000130000001300000094
:10002000232E11FE232C51FE232A61FE232871FE6C
:100030002326A1FE2324B1FE2322C1FE2320D1FECC
:10004000232EE1FC232CF1FC232A01FD232811FDA2
:100050002326C1FD2324D1FD2322E1FD2320F1FD30
:10006000130101FCEF0040438320C103832281037D
:1000700003234103832301030325C1028325810256
:1000800003264102832601020327C1018327810140
:100090000328410183280101032EC100832E810022
:1000A000032F4100832F010013010104730020304E
:1000B00097110000938101D8138101A0170500005A
:1000C00013054557970500009385C5566308B5008D
:1000D00023200500130545006FF05FFF17050000A2
:1000E000130505551301C1FF97050000938545547D
:1000F000630EB50083260500130545002320A100EB
:10010000E7800600032501006FF01FFE1301410088
:10011000371500001305058873104530372500009A
:100120001305858073100530EF00C0196F000000C3
:10013000130101FE232E8100130401022326A4FED5
:100140008327C4FE23A007008327C4FE23A407003F
:10015000130000000324C1011301010267800000A5
:10016000130101FE232E8100130401022326A4FEA5
:10017000130000000324C101130101026780000085
:10018000130101FE232E8100130401022326A4FE85
:100190008327C4FE23A207008327C4FE1307F0FFB2
:1001A00023A0E700130000000324C1011301010292
:1001B00067800000130101FE232E81001304010259
:1001C0002326A4FE8327C4FE83A7470093D70701F5
:1001D00093F7F70F138507000324C10113010102F0
:1001E00067800000130101FE232E81001304010229
:1001F0002326A4FE8327C4FE83A7470093D7870145
:10020000138507000324C101130101026780000068
:10021000130101FE232E1100232C8100130401027F
:100220002326A4FE2324B4FE130000000325C4FEED
:10023000EFF05FF893070500E38A07FE8327C4FE0B
:10024000032784FE23A0E700130000008320C101E0
:10025000032481011301010267800000130101FEE4
:10026000232E8100130401022326A4FE2324B4FEBE
:10027000832784FE03A7C7008327C4FE23A4E700C7
:10028000832784FE83A707001387F7FF832784FE55
:1002900083A74700939787003367F700832784FE7F
:1002A00083A78700939707013367F7008327C4FE6E
:1002B00023A6E700130000000324C101130101027B
:1002C00067800000130101FD23261102232481020F
:1002D00013040103930710002322F4FE9307200068
:1002E0002320F4FE93073000232EF4FC232604FE83
:1002F000B70702F013850701EFF09FE8370502F01A
:10030000EFF01FE6B70702F013850704EFF05FE296
:10031000B70702F0374700001307F7E723A0E7000D
:10032000B70702F0938707041307703E23A2E70084
:10033000B70702F093870704370701001307270068
:1003400023A0E700B70702F0938707011307F00027
:1003500023A0E700B70702F09387070113071000F7
:1003600023A2E700B70700F01307F00F23A4E7006C
:10037000B70700F023A20700B70701F0130720001A
:1003800023A2E700B70701F01307100423A0E7003A
:10039000B71701F023A00700832744FE0327C4FEFC
:1003A000B307F7002326F4FE032704FE8327C4FDCA
:1003B000B307F7000327C4FEB307F7002326F4FEB4
:1003C000232404FE6F000001832784FE9387170017
:1003D0002324F4FE032784FEB7C700009387F73475
:1003E000E3F4E7FEB70700F083A7470093F607FCA6
:1003F000B70700F083A747009387170013F7F703A9
:10040000B70700F033E7E60023A2E700B70701F0E3
:1004100083A7070193F70710E38007F8B70700F0F9
:1004200003A74700B70700F01347070823A2E70018
:100430006FF09FF6130101FD2326810213040103CF
:10044000232EA4FCB70700F083A747002326F4FE61
:100450006F008001B70700F003A74700B70700F05F
:100460001347070823A2E700B70701F083A7470057
:1004700013D707018327C4FDE36EF7FCB70700F02D
:100480000327C4FE23A2E700130000000324C102D7
:100490001301010367800000130101FE232E1100E8
:1004A000232C810013040102B70702F09387070190
:1004B00083A7070093F7170063820708B70700F0C8
:1004C00003A74700B70700F01347070823A2E70078
:1004D000B70702F0938707011307100023A0E70076
:1004E0006F00C005B70701F083A7070093F7F70F68
:1004F0002322F4FE032744FEB70701F023A0E70000
:10050000032744FE9307F00263DAE702032744FE61
:100510009307900363C4E702832744FE138707FD14
:100520009307070093973700B387E7409397270017
:1005300013870700B71701F023A0E700B70701F002
:1005400083A7470093F70720E39E07F86F00C00BCF
:10055000B72701F083A7070013870700B70701003B
:100560009387F7FFB377F7002320F4FE130570009D
:10057000EFF05FECB70701F01307D00023A0E7000E
:10058000B70701F01307A00023A0E700930730008E
:100590002324F4FE6F00C006832784FE9397270070
:1005A0001307F0003317F700832704FE3377F700B3
:1005B000832784FE93972700B357F740A307F4FEE1
:1005C0000347F4FE9307900063EAE7008347F4FED5
:1005D00093870703A307F4FE6F0000018347F4FE2F
:1005E00093877705A307F4FEB70701F00347F4FEEE
:1005F00023A0E700832784FE9387F7FF2324F4FEDC
:10060000832784FEE3DA07F8B72701F083A74700C2
:1006100093F71700E39E07F2130000008320C10147
:0C06200003248101130101026780000027
:04062C0000000000CA
:040000058000000077
:00000001FF
